{
  "address": "0xCf7Ed3AccA5a467e9e704C703E8D87F634fB0Fc9",
  "abi": [
    {
      "inputs": [
        {
          "internalType": "contract AggregatorV3Interface",
          "name": "aggregator",
          "type": "address"
        },
        {
          "internalType": "uint80",
          "name": "cacheTwapInterval",
          "type": "uint80"
        }
      ],
      "stateMutability": "nonpayable",
      "type": "constructor"
    },
    {
      "anonymous": false,
      "inputs": [
        {
          "indexed": false,
          "internalType": "uint256",
          "name": "price",
          "type": "uint256"
        },
        {
          "indexed": false,
          "internalType": "uint256",
          "name": "timestamp",
          "type": "uint256"
        },
        {
          "indexed": false,
          "internalType": "uint8",
          "name": "indexAt",
          "type": "uint8"
        }
      ],
      "name": "PriceUpdated",
      "type": "event"
    },
    {
      "inputs": [
        {
          "internalType": "uint256",
          "name": "interval",
          "type": "uint256"
        }
      ],
      "name": "cacheTwap",
      "outputs": [
        {
          "internalType": "uint256",
          "name": "",
          "type": "uint256"
        }
      ],
      "stateMutability": "nonpayable",
      "type": "function"
    },
    {
      "inputs": [],
      "name": "currentObservationIndex",
      "outputs": [
        {
          "internalType": "uint8",
          "name": "",
          "type": "uint8"
        }
      ],
      "stateMutability": "view",
      "type": "function"
    },
    {
      "inputs": [],
      "name": "decimals",
      "outputs": [
        {
          "internalType": "uint8",
          "name": "",
          "type": "uint8"
        }
      ],
      "stateMutability": "view",
      "type": "function"
    },
    {
      "inputs": [],
      "name": "getAggregator",
      "outputs": [
        {
          "internalType": "address",
          "name": "",
          "type": "address"
        }
      ],
      "stateMutability": "view",
      "type": "function"
    },
    {
      "inputs": [
        {
          "internalType": "uint256",
          "name": "interval",
          "type": "uint256"
        }
      ],
      "name": "getPrice",
      "outputs": [
        {
          "internalType": "uint256",
          "name": "",
          "type": "uint256"
        }
      ],
      "stateMutability": "view",
      "type": "function"
    },
    {
      "inputs": [
        {
          "internalType": "uint80",
          "name": "roundId",
          "type": "uint80"
        }
      ],
      "name": "getRoundData",
      "outputs": [
        {
          "internalType": "uint256",
          "name": "",
          "type": "uint256"
        },
        {
          "internalType": "uint256",
          "name": "",
          "type": "uint256"
        }
      ],
      "stateMutability": "view",
      "type": "function"
    },
    {
      "inputs": [
        {
          "internalType": "uint256",
          "name": "",
          "type": "uint256"
        }
      ],
      "name": "observations",
      "outputs": [
        {
          "internalType": "uint256",
          "name": "price",
          "type": "uint256"
        },
        {
          "internalType": "uint256",
          "name": "priceCumulative",
          "type": "uint256"
        },
        {
          "internalType": "uint256",
          "name": "timestamp",
          "type": "uint256"
        }
      ],
      "stateMutability": "view",
      "type": "function"
    },
    {
      "inputs": [],
      "name": "update",
      "outputs": [],
      "stateMutability": "nonpayable",
      "type": "function"
    }
  ],
  "transactionHash": "0x6d7d146fa259ef9cc38f4871c27f786da04e6dcb9f083155097fc59b8bc201a6",
  "args": [
    "0x779877A7B0D9E8603169DdbD7836e478b4624789",
    900
  ],
  "numDeployments": 1,
  "solcInputHash": "aa375816d667ea6d07048d058cd68303",
  "bytecode": "0x60a060405234801561001057600080fd5b50604051610fc2380380610fc28339818101604052604081101561003357600080fd5b50805160209091015161030280546001600160501b03909216600160a01b02600160a01b600160f01b03199092169190911790556001600160601b0319606082901b166080526001600160a01b0316610f106100b260003980610212528061029c52806102c6528061046b528061083c52806109025250610f106000f3fe608060405234801561001057600080fd5b50600436106100785760003560e01c80631d1a111a1461007d578063252c09d7146100ac578063313ce567146100e75780633ad59dbc146101055780639a6fc8f514610129578063a2e6204514610168578063aed3aff714610172578063e75722301461017a575b600080fd5b61009a6004803603602081101561009357600080fd5b5035610197565b60408051918252519081900360200190f35b6100c9600480360360208110156100c257600080fd5b50356101e6565b60408051938452602084019290925282820152519081900360600190f35b6100ef61020e565b6040805160ff9092168252519081900360200190f35b61010d61029a565b604080516001600160a01b039092168252519081900360200190f35b61014f6004803603602081101561013f57600080fd5b50356001600160501b03166102be565b6040805192835260208301919091528051918290030190f35b6101706103f4565b005b6100ef610412565b61009a6004803603602081101561019057600080fd5b503561041c565b6000806000806101a5610460565b92509250925084600014806101c157506001600160501b038316155b156101d0575091506101e19050565b6101db858383610537565b93505050505b919050565b60008161010081106101f757600080fd5b600302018054600182015460029092015490925083565b60007f00000000000000000000000000000000000000000000000000000000000000006001600160a01b031663313ce5676040518163ffffffff1660e01b815260040160206040518083038186803b15801561026957600080fd5b505afa15801561027d573d6000803e3d6000fd5b505050506040513d602081101561029357600080fd5b5051905090565b7f000000000000000000000000000000000000000000000000000000000000000090565b6000806000807f00000000000000000000000000000000000000000000000000000000000000006001600160a01b0316639a6fc8f5866040518263ffffffff1660e01b815260040180826001600160501b0316815260200191505060a06040518083038186803b15801561033157600080fd5b505afa158015610345573d6000803e3d6000fd5b505050506040513d60a081101561035b57600080fd5b5060208101516060909101519092509050600082136103aa576040805162461bcd60e51b815260206004820152600660248201526504350465f49560d41b604482015290519081900360640190fd5b600081116103ea576040805162461bcd60e51b81526020600482015260086024820152674350465f52494e4360c01b604482015290519081900360640190fd5b9092509050915091565b6000806103ff610460565b925092505061040e82826105d9565b5050565b6103005460ff1681565b60008060008061042a610460565b925092509250846000148061044657506001600160501b038316155b15610455575091506101e19050565b6101db85838361078d565b6000806000806000807f00000000000000000000000000000000000000000000000000000000000000006001600160a01b031663feaf968c6040518163ffffffff1660e01b815260040160a06040518083038186803b1580156104c257600080fd5b505afa1580156104d6573d6000803e3d6000fd5b505050506040513d60a08110156104ec57600080fd5b508051602082015160609092015191965093508592509050600082121561052b57610516836107e6565b61052260018403610831565b90965090935090505b91945090915050909192565b61030254600090600160a01b90046001600160501b031684146105665761055f8484846109ba565b90506105d2565b610302546001600160a01b031661057b610b51565b141561058b5750610301546105d2565b61059583836105d9565b61059d610b51565b61030280546001600160a01b0319166001600160a01b03929092169190911790556105c98484846109ba565b61030181905590505b9392505050565b6103005460ff161580156105ed5750600254155b1561065957604080516060810182528381526000602082018190529082018390528381556001819055600283905590517f5f4a9a1b73bee700ca1fb203bb004bcc0a7eca48af3f147b24dcf5bf4bf3c00b9161064c9185918591610ea0565b60405180910390a161040e565b61030054600090819060ff16610100811061067057fe5b6040805160608101825260039290920292909201805482526001810154602083015260020154918101829052915082116106c55760405162461bcd60e51b81526004016106bc90610e62565b60405180910390fd5b610300805460ff198116600160ff9283160182161791829055604083810151815160608101835287815285516020808801519389039182029093019282019290925291820186905292909160009116610100811061071f57fe5b825160039190910291909101908155602082015160018201556040918201516002909101556103005490517f5f4a9a1b73bee700ca1fb203bb004bcc0a7eca48af3f147b24dcf5bf4bf3c00b9161077f918791879160ff90911690610ea0565b60405180910390a150505050565b610302546000906001600160a01b03166107a5610b51565b1480156107c4575061030254600160a01b90046001600160501b031684145b156107d35750610301546105d2565b6107de8484846109ba565b949350505050565b6000816001600160501b03161161082e576040805162461bcd60e51b8152602060048201526007602482015266086a08cbe9c8a960cb1b604482015290519081900360640190fd5b50565b6000806000806000807f00000000000000000000000000000000000000000000000000000000000000006001600160a01b0316639a6fc8f5886040518263ffffffff1660e01b815260040180826001600160501b0316815260200191505060a06040518083038186803b1580156108a757600080fd5b505afa1580156108bb573d6000803e3d6000fd5b505050506040513d60a08110156108d157600080fd5b508051602082015160609092015190945090925090505b60008212156109ad576108fa836107e6565b6001830392507f00000000000000000000000000000000000000000000000000000000000000006001600160a01b0316639a6fc8f5846040518263ffffffff1660e01b815260040180826001600160501b0316815260200191505060a06040518083038186803b15801561096d57600080fd5b505afa158015610981573d6000803e3d6000fd5b505050506040513d60a081101561099757600080fd5b50602081015160609091015190925090506108e8565b9196909550909350915050565b610300546000908190819060ff1661010081106109d357fe5b6003020160405180606001604052908160008201548152602001600182015481526020016002820154815250509050806000015160001415610a275760405162461bcd60e51b81526004016106bc90610e81565b6000610a31610b51565b90506000610a3f8288610b55565b9050600080610a4d83610bb7565b90925090506000610aa1610a96610a6e610a67888c610b55565b8c90610d07565b610a90610a888a604001518d610b5590919063ffffffff16565b8a5190610d07565b90610d60565b602088015190610d60565b9050600083604001518511610ac3578360400151945083602001519050610b32565b84836040015111610ae1578260400151945082602001519050610b32565b6000846040015184604001510390506000856040015187039050610b2d610a9683610b2784610b218b602001518b60200151610b5590919063ffffffff16565b90610d07565b90610dba565b925050505b610b42858703610b278484610b55565b9b9a5050505050505050505050565b4290565b600082821115610bac576040805162461bcd60e51b815260206004820152601e60248201527f536166654d6174683a207375627472616374696f6e206f766572666c6f770000604482015290519081900360640190fd5b508082035b92915050565b610bbf610e21565b610bc7610e21565b6103005460ff16600080610100815b81811015610c49578760008660ff166101008110610bf057fe5b600302016002015411610c3a5760008560ff166101008110610c0e57fe5b600302016002015460001415610c2c57846001019350839250610c49565b849350836001019250610c49565b60001990940193600101610bd6565b81811415610c695760405162461bcd60e51b81526004016106bc90610e42565b60008460ff166101008110610c7a57fe5b600302016040518060600160405290816000820154815260200160018201548152602001600282015481525050965060008360ff166101008110610cba57fe5b6003020160405180606001604052908160008201548152602001600182015481526020016002820154815250509550866040015186604001511015610cfd578695505b5050505050915091565b600082610d1657506000610bb1565b82820282848281610d2357fe5b04146105d25760405162461bcd60e51b8152600401808060200182810382526021815260200180610eba6021913960400191505060405180910390fd5b6000828201838110156105d2576040805162461bcd60e51b815260206004820152601b60248201527f536166654d6174683a206164646974696f6e206f766572666c6f770000000000604482015290519081900360640190fd5b6000808211610e10576040805162461bcd60e51b815260206004820152601a60248201527f536166654d6174683a206469766973696f6e206279207a65726f000000000000604482015290519081900360640190fd5b818381610e1957fe5b049392505050565b60405180606001604052806000815260200160008152602001600081525090565b602080825260069082015265086a8be9c8a960d31b604082015260600190565b60208082526005908201526410d517d25560da1b604082015260600190565b60208082526005908201526410d517d39160da1b604082015260600190565b928352602083019190915260ff1660408201526060019056fe536166654d6174683a206d756c7469706c69636174696f6e206f766572666c6f77a2646970667358221220bb09b1070adba25be827173171831d67eca487ca3f8ad8d489772060f3a08b2e64736f6c63430007060033",
  "devdoc": {
    "kind": "dev",
    "methods": {
      "cacheTwap(uint256)": {
        "details": "Returns the cached index price of the token.",
        "params": {
          "interval": "The interval represents twap interval."
        }
      },
      "getPrice(uint256)": {
        "details": "Returns the index price of the token.",
        "params": {
          "interval": "The interval represents twap interval."
        }
      },
      "getRoundData(uint80)": {
        "params": {
          "roundId": "The roundId that fed into Chainlink aggregator."
        }
      },
      "update()": {
        "details": "anyone can help update it."
      }
    },
    "version": 1
  },
  "userdoc": {
    "kind": "user",
    "methods": {},
    "version": 1
  },
  "storageLayout": {
    "storage": [
      {
        "astId": 4833,
        "contract": "@perp/perp-oracle-contract/contracts/ChainlinkPriceFeedV2.sol:ChainlinkPriceFeedV2",
        "label": "observations",
        "offset": 0,
        "slot": "0",
        "type": "t_array(t_struct(Observation)4821_storage)256_storage"
      },
      {
        "astId": 4835,
        "contract": "@perp/perp-oracle-contract/contracts/ChainlinkPriceFeedV2.sol:ChainlinkPriceFeedV2",
        "label": "currentObservationIndex",
        "offset": 0,
        "slot": "768",
        "type": "t_uint8"
      },
      {
        "astId": 4703,
        "contract": "@perp/perp-oracle-contract/contracts/ChainlinkPriceFeedV2.sol:ChainlinkPriceFeedV2",
        "label": "_cachedTwap",
        "offset": 0,
        "slot": "769",
        "type": "t_uint256"
      },
      {
        "astId": 4705,
        "contract": "@perp/perp-oracle-contract/contracts/ChainlinkPriceFeedV2.sol:ChainlinkPriceFeedV2",
        "label": "_lastUpdatedAt",
        "offset": 0,
        "slot": "770",
        "type": "t_uint160"
      },
      {
        "astId": 4707,
        "contract": "@perp/perp-oracle-contract/contracts/ChainlinkPriceFeedV2.sol:ChainlinkPriceFeedV2",
        "label": "_interval",
        "offset": 20,
        "slot": "770",
        "type": "t_uint80"
      }
    ],
    "types": {
      "t_array(t_struct(Observation)4821_storage)256_storage": {
        "base": "t_struct(Observation)4821_storage",
        "encoding": "inplace",
        "label": "struct CumulativeTwap.Observation[256]",
        "numberOfBytes": "24576"
      },
      "t_struct(Observation)4821_storage": {
        "encoding": "inplace",
        "label": "struct CumulativeTwap.Observation",
        "members": [
          {
            "astId": 4816,
            "contract": "@perp/perp-oracle-contract/contracts/ChainlinkPriceFeedV2.sol:ChainlinkPriceFeedV2",
            "label": "price",
            "offset": 0,
            "slot": "0",
            "type": "t_uint256"
          },
          {
            "astId": 4818,
            "contract": "@perp/perp-oracle-contract/contracts/ChainlinkPriceFeedV2.sol:ChainlinkPriceFeedV2",
            "label": "priceCumulative",
            "offset": 0,
            "slot": "1",
            "type": "t_uint256"
          },
          {
            "astId": 4820,
            "contract": "@perp/perp-oracle-contract/contracts/ChainlinkPriceFeedV2.sol:ChainlinkPriceFeedV2",
            "label": "timestamp",
            "offset": 0,
            "slot": "2",
            "type": "t_uint256"
          }
        ],
        "numberOfBytes": "96"
      },
      "t_uint160": {
        "encoding": "inplace",
        "label": "uint160",
        "numberOfBytes": "20"
      },
      "t_uint256": {
        "encoding": "inplace",
        "label": "uint256",
        "numberOfBytes": "32"
      },
      "t_uint8": {
        "encoding": "inplace",
        "label": "uint8",
        "numberOfBytes": "1"
      },
      "t_uint80": {
        "encoding": "inplace",
        "label": "uint80",
        "numberOfBytes": "10"
      }
    }
  }
}